8=FIX.4.2|9=68|35=A|34=1|49=ACCEPTOR|52=20240107-19:52:15.943|56=SENDER|98=0|108=5|10=237|8=FIX.4.2|9=66|35=2|34=2|49=ACCEPTOR|52=20240107-19:52:15.944|56=SENDER|7=1|16=0|10=110|