8=FIX.4.2|9=32|35=1|49=SENDER|56=ACCEPTOR|34=2|10=15|
