20240107-19:52:15.939000000 : 8=FIX.4.2|9=68|35=A|34=2|49=SENDER|52=20240107-19:52:15.939|56=ACCEPTOR|98=0|108=5|10=243|
20240107-19:54:40.748000000 : 8=FIX.4.2|9=68|35=A|34=4|49=SENDER|52=20240107-19:54:40.748|56=ACCEPTOR|98=0|108=5|10=243|
