8=FIX.4.4|9=68|35=A|34=1|49=SENDER|52=20240107-19:47:51.417|56=ACCEPTOR|98=0|108=5|10=239|8=FIX.4.4|9=68|35=A|34=1|49=SENDER|52=20240107-19:49:21.841|56=ACCEPTOR|98=0|108=5|10=239|