8=FIX.4.2|9=57|35=1|34=1|49=SENDER|52=20240107-19:52:15.933|56=ACCEPTOR|10=239|8=FIX.4.2|9=68|35=A|34=2|49=SENDER|52=20240107-19:52:15.939|56=ACCEPTOR|98=0|108=5|10=243|8=FIX.4.2|9=57|35=1|34=3|49=SENDER|52=20240107-19:52:58.174|56=ACCEPTOR|10=245|8=FIX.4.2|9=68|35=A|34=4|49=SENDER|52=20240107-19:54:40.748|56=ACCEPTOR|98=0|108=5|10=243|8=FIX.4.2|9=57|35=1|34=5|49=SENDER|52=20240107-19:54:40.749|56=ACCEPTOR|10=248|